:100000000C94C2010C94E3010C94E3010C94E30101
:100010000C94E3010C94E3010C94E3010C94E301D0
:100020000C94E3010C94E3010C94E3010C94E301C0
:100030000C94E3010C94E3010C94E3010C94E301B0
:100040000C94E3010C94E3010C94E3010C94E301A0
:100050000C94E3010C94E3010C94E3010C94E30190
:100060000C94E3010C94E5010C941E020C94E30142
:100070000C94E3010C94E3010C94E3010C94E30170
:100080000C94E3010C94E3010C94E3010C94E30160
:100090000C94E3010C94E3010C94E3010C94E30150
:1000A0000C94E3010C94E3010C94E3010C94E30140
:1000B0000C94E3010C94E3010C94E3010C94E30130
:1000C0000C94E3010C94E3010C94E3010C94E30120
:1000D0000C94E3010C94E3010C94E3010C94E30110
:1000E0000C94E301BC5F9C60A4618462B663966477
:1000F000B0659F66B567FFFF0000000000000000CC
:10010000002F000000000700070000147F147F1478
:1001100000242A7F2A1200626408132300364955FE
:10012000225000000503000000001C2241000000D6
:1001300041221C000014083E08140008083E08086C
:10014000000000A0600000080808080800006060C7
:100150000000002010080402003E5149453E000006
:10016000427F4000004261514946002141454B31E8
:10017000001814127F10002745454539003C4A49B4
:100180004930000171090503003649494936000626
:100190004949291E0000363600000000563600008E
:1001A0000008142241000014141414140000412209
:1001B000140800020151090600324959513E007CE1
:1001C0001211127C007F49494936003E41414122CB
:1001D000007F4141221C007F49494941007F0909B4
:1001E0000901003E4149497A007F0808087F000064
:1001F000417F4100002040413F01007F081422411F
:10020000007F40404040007F020C027F007F0408D6
:10021000107F003E4141413E007F09090906003E32
:100220004151215E007F091929460046494949315B
:100230000001017F0101003F4040403F001F20407E
:10024000201F003F4038403F00631408146300073C
:100250000870080700615149454300007F41410093
:1002600000552A552A55000041417F000004020133
:100270000204004040404040000001020400002011
:1002800054545478007F484444380038444444204F
:1002900000384444487F00385454541800087E09FC
:1002A00001020018A4A4A47C007F080404780000C4
:1002B000447D4000004080847D00007F1028440081
:1002C0000000417F4000007C04180478007C080492
:1002D000047800384444443800FC242424180018CE
:1002E000242418FC007C08040408004854545420BA
:1002F00000043F444020003C4040207C001C204043
:10030000201C003C4030403C004428102844001C85
:10031000A0A0A07C004464544C4400000877410035
:100320000000006300000000417708000008040896
:100330000804003A4040207A003D4040403D002102
:1003400054545479007D1211127D003944444439CB
:10035000003D4242423D000205020000007E01498C
:100360005573007C1010081CAE2000B0C80010406F
:10037000813FA1A6A83FA4D300D5F0D922DA12DB91
:10038000208D140011241FBECFEFD1E2DEBFCDBF00
:1003900000E00CBF12E0A0E0B2E0EEE9F4E100E022
:1003A0000BBF02C007900D92AC32B107D9F723E022
:1003B000ACE2B2E001C01D92A13AB207E1F70E949F
:1003C000D2060C944D0A0C9400001F920F920FB6A7
:1003D0000F9211240BB60F922F933F934F935F937D
:1003E0008F939F93EF93FF932091C0003091C600AD
:1003F000287180912E0290E001968F779927409185
:100400002D0250E08417950739F080932E02FC01ED
:10041000EF5CFD4F308301C022E020932C02FF915E
:10042000EF919F918F915F914F913F912F910F90FD
:100430000BBE0F900FBE0F901F9018951F920F923A
:100440000FB60F9211240BB60F928F939F93EF93D9
:10045000FF939091300280912F02981779F080914C
:100460002F0290E001968F77992780932F02FC014D
:10047000EF54FD4F80818093C60005C08091C1007C
:100480008F7D8093C100FF91EF919F918F910F908D
:100490000BBE0F900FBE0F901F901895F8941092FE
:1004A000300210922F0210922E0210922D02789498
:1004B00097FF04C022E02093C0009F779093C5006F
:1004C0008093C40088E98093C10086E08093C200D5
:1004D0000895F89490912E0280912D02981304C0F3
:1004E000789480E091E00895789480912D0290E0D6
:1004F00001968F77992780932D02FC01EF5CFD4FC9
:10050000208180912C0290E0982F8827820F911DE6
:100510000895F89490912E0280912D02981304C0B2
:10052000789480E091E008957894E0912D02F0E0D5
:100530003196EF77FF27EF5CFD4F208180912C02F1
:1005400090E0982F8827820F911D08952091300206
:1005500030E02F5F3F4F2F77332740912F0250E03D
:1005600024173507D1F3F901EF54FD4F8083209311
:1005700030028091C10080628093C1000895CF93C2
:10058000DF93EC018991882319F00E94A602FACF2B
:10059000DF91CF910895CF93DF93FC018491EF0118
:1005A0002196882321F00E94A602FE01F7CFDF9159
:1005B000CF910895F89480912E0220912D02789485
:1005C00090E080589F4F821B91098F77992708955B
:1005D000F89480912D0280932E0278940895FF92D2
:1005E0000F931F93CF93DF93F82E092F162F88E7D1
:1005F0000E94C20580E00E941506CF2DD02FCE01AB
:10060000810F911D8C01C017D10721F089910E94A3
:100610001506F9CFDF91CF911F910F91FF900C94A8
:100620000D06CF93DF9300D01F921F92CDB7DEB798
:10063000E1E3F3E0808361836055698391E29A830B
:1006400092E0980F9F709B8390E00296807F99279D
:1006500024E0959587952A95E1F7805F8C838FE755
:100660008D8365E0CE0101960E94EF020F900F90FE
:100670000F900F900F90DF91CF910895EF92FF921E
:100680000F931F93CF93DF937C018B0188E70E9428
:10069000C20580E40E941506E7010E0D1F1DC0175C
:1006A000D10721F089910E941506F9CFDF91CF91F2
:1006B0001F910F91FF90EF900C940D06813820F45C
:1006C000683010F40C9411030895982F990F890F36
:1006D000880F0C945E0360E080E00C941103EF92AD
:1006E000FF921F93CF93DF93CDB7DEB7C058D109E8
:1006F0000FB6F894DEBF0FBECDBFCE0101967C01D0
:1007000080E8F70111928A95E9F710E0612F80E007
:100710000E945E0360E870E0C7010E943E031F5F15
:100720001830A1F70E946B03C058DF4F0FB6F89442
:10073000DEBF0FBECDBFDF91CF911F91FF90EF9035
:1007400008951F93CF93DF93CDB7DEB76C970FB6A5
:10075000F894DEBF0FBECDBF182F0E94BC05E8E69F
:10076000F3E0DE0111969E01245E3F4FCD014491DE
:100770004D933196A217B307D1F71C8F6CE10E94FD
:10078000EF020E946F036C960FB6F894DEBF0FBEA7
:10079000CDBFDF91CF911F910895CF93DF931F922B
:1007A000CDB7DEB7813011F086EA01C087EA8983D0
:1007B00061E0CE0101960E94EF020F90DF91CF9190
:1007C0000895CF93DF931F92CDB7DEB7813011F03C
:1007D0008FEA01C08EEA898361E0CE0101960E9412
:1007E000EF020F90DF91CF910895CF93DF931F9287
:1007F0001F92CDB7DEB791E899838A8362E0CE017C
:1008000001960E94EF020F900F90DF91CF91089513
:100810008F929F92AF92BF92CF92DF92EF92FF9210
:100820000F931F93CF93DF93CDB7DEB76D970FB6BE
:10083000F894DEBF0FBECDBF893001F1BCF4883023
:1008400009F048C080913103909100026091320319
:10085000891B0E94650380E20E9408048091310395
:100860009091000260913203891B1FC08A3021F1F0
:100870008D3081F56091320380E029C08091310391
:100880009091000224E0929FA0011124BA01680F08
:10089000711D25E130E0241B350B6217730740F40E
:1008A000990F990F60913203890F0E94650333C13C
:1008B000609132038EE70BC060913203673008F01D
:1008C0002AC180910002680F80913103EECF0E940F
:1008D0005E0321C1409131034A3708F01CC18032C8
:1008E0000CF419C18052682F70E0E5EEF0E0E4915D
:1008F000F0E06E177F07DCF050E0252F30E0220F8C
:10090000331FC9018B519F4FFC01A491AF3F71F080
:10091000F901EC51FF4FE491F0E0B0976E177F07BB
:1009200019F4FC01849103C05F5FE7CF8FEF9091D2
:100930000002923009F0D1C0242F30E0245F3F4FF5
:100940002138310508F0E7C08E01035F1F4FF6E044
:100950008F9F50011124D80120E030E0CC24C394B3
:10096000D12C11961C921E92F901EA0DFB1DE85044
:10097000FF4FE49141E050E080E090E0F0E0BF0103
:10098000082E02C0759567950A94E2F760FF1BC0B8
:10099000ED90FC901197B601042E02C0660F771FF0
:1009A0000A94E2F7E62AF72ABC01660F771F460190
:1009B00002C0880C991C6A95E2F7B4016E297F2960
:1009C00011967C936E9301964E5F5F4F8830910530
:1009D000B1F62F5F3F4F12962630310509F0C1CF97
:1009E000F80180E090E09C01220F331F4081329695
:1009F000A1E0B0E0AC0FBD1FA20FB31F4C93A2E06B
:100A0000B0E0AC0FBD1FA20FB31F4C930196863010
:100A1000910549F76CE070E0CE0101960E943E031B
:100A2000809132038F54898F81E28A8F80913103C4
:100A300092E0980F9F709B8F90E00296807F99279D
:100A400054E0959587955A95E1F7805F8C8F8FE7F5
:100A50008D8F65E0CE0149960E94EF0280E090E024
:100A60009C01220F331FF80141810E5F1F4FE1E00F
:100A7000F0E0EC0FFD1FE20FF31F4083E2E0F0E037
:100A8000EC0FFD1FE20FF31F4083019686309105A6
:100A900039F76CE070E0CE0101960E943E03809130
:100AA00032038055898F809131039EE0980F9F70AB
:100AB0009B8F90E00E96807F992724E096958795EE
:100AC0002A95E1F7805F8C8F65E0CE0149960E9400
:100AD000EF0280913103845F1CC0DE011196F6E0C5
:100AE0008F9F5001112420E030E0CD01F901EA0D83
:100AF000FB1DE850FF4FE491ED932F5F3F4F2630F1
:100B00003105A1F766E070E00E943E038091310359
:100B10008A5F809331036D960FB6F894DEBF0FBEE7
:100B2000CDBFDF91CF911F910F91FF90EF90DF909C
:100B3000CF90BF90AF909F908F90089580930002C8
:100B40000895CF93DF93EC018991882319F00E94D7
:100B50000804FACFDF91CF910895CF93DF93FC0182
:100B60008491EF012196882321F00E940804FE0160
:100B7000F7CFDF91CF9108951092B90088E180936B
:100B8000B800089594EA9093BC009091BC0097FF40
:100B9000FCCF9091B900987F983021F0903111F0FE
:100BA00081E008958093BB0084E88093BC0080912D
:100BB000BC0087FFFCCF8091B900887F883111F09D
:100BC000803471F780E0089524EA34E844E9209302
:100BD000BC009091BC0097FFFCCF9091B900987F2A
:100BE000983011F0903199F78093BB003093BC009E
:100BF0009091BC0097FFFCCF9091B900987F903204
:100C000011F0983539F44093BC009091BC0094FDEC
:100C1000FCCFDDCF08950C94C20584E98093BC001D
:100C20008091BC0084FDFCCF08958093BB0084E8D4
:100C30008093BC008091BC0087FFFCCF9091B900ED
:100C4000987F81E0983209F480E0089584EC8093E5
:100C5000BC008091BC0087FFFCCF8091BB00089551
:100C600084E88093BC008091BC0087FFFCCF80911A
:100C7000BB000895E1E0F1E080818860808380819D
:100C800080628083808180618083E2E0F1E0808106
:100C9000886080838081806280838081806180839E
:100CA0000895E2E0F1E08081877F80830895E2E0AB
:100CB000F1E08081886080830895E2E0F1E0808146
:100CC0008F7D80830895E2E0F1E0808180628083FF
:100CD0000895E2E0F1E080818F7E80830895E2E074
:100CE000F1E080818061808308956F98779A0895FC
:100CF0008CB1881F8827881F0895CF93DF93DC016C
:100D0000FC0170E0C1E0D0E0CF018A1B9B0B86178D
:100D10009707ECF491919031B8F7983058F420B3DC
:100D2000AE0101C0440F9A95EAF7942F9095922353
:100D300090BBEACF20910701AE0101C0440F9A9504
:100D4000EAF7942F9095922390930701DDCFDF91DE
:100D5000CF91089580B7806880BFECE7F0E0808194
:100D600080628083EAE7F0E080818668808308956E
:100D70008770806280937C0080917A008064809389
:100D80007A0080917A0084FFFCCF80917900909165
:100D90007A00906190937A0090917B00977F909376
:100DA0007B00089588E090E00E944E020E94E802D5
:100DB00082E092E00E94BF02809101021F928F9315
:100DC0008EE192E09F938F9387E993E09F938F93B7
:100DD0000E9464078FEA0E94A1030E946F0382E0D1
:100DE0000E949E0582E292E00E94A10581E00E949D
:100DF0009E050E943A060F900F900F900F900F9053
:100E00000F9087E993E00E94BF022FEF89E698E1F7
:100E1000215080409040E1F700C000000E9469022C
:100E20009093A00380939F03811521E0920749F3DB
:100E30009C0133273093A00320939F030E94A602B6
:100E400063E080E00E94650380919F030E94080494
:100E500080919F038D3451F15CF4833401F1873428
:100E600091F0823471F60E9469060E94570622C0F2
:100E7000873519F1893561F0823519F60E945106DE
:100E80000E94630609C00E945D060E94570604C0C6
:100E90000E9451060E945D060E946F06B2CF0E941A
:100EA0005D060E9469060E945706ABCF0E9451065C
:100EB0000E9469060E946306A4CF0E9451060E9408
:100EC0005D060E9469069DCF0F931F93CF93DF931A
:100ED000CDB7DEB72E970FB6F894DEBF0FBECDBFED
:100EE0000E891F8986E08C831A8309838FEF9FE721
:100EF0009E838D83AE01465E5F4F688D798DCE01F6
:100F000001960E949307EF81F885E00FF11F108290
:100F10002E960FB6F894DEBF0FBECDBFDF91CF91F6
:100F20001F910F9108952F923F924F925F926F926F
:100F30007F928F929F92AF92BF92CF92DF92EF9269
:100F4000FF920F931F93CF93DF93CDB7DEB72B970D
:100F50000FB6F894DEBF0FBECDBF6C017B018A01D6
:100F6000FC0117821682838181FFCCC1CE010196DC
:100F70003C01F6019381F70193FD859193FF8191E7
:100F80007F01882309F4BAC1853239F493FD859134
:100F900093FF81917F01853229F4B60190E00E9490
:100FA000B309E7CF912C212C312CFFE1F315D8F0B8
:100FB0008B3279F038F4803279F08332A1F4232D2A
:100FC00020611DC08D3261F0803369F4232D2160D2
:100FD00016C0832D8260382EE32DE4603E2E2AC099
:100FE000F32DF8601DC037FC2DC020ED280F2A30EE
:100FF00040F08E32B9F436FC81C1232D2064322EAC
:1010000019C036FE06C08AE0989E200D1124922E4B
:1010100011C0EAE02E9E200D1124222EF32DF06245
:101020003F2E08C08C3621F4832D8068382E02C0F4
:10103000883641F4F70193FD859193FF81917F01FB
:101040008111B3CF982F9F7D9554933028F40C5F76
:101050001F4F9FE399830DC0833631F0833771F0C2
:10106000833509F059C021C0F801808189830E5F62
:101070001F4F88248394912C530113C02801F2E060
:101080004F0E511CF801A080B18036FE03C0692DBF
:1010900070E002C06FEF7FEFC5010E94A8094C010C
:1010A0008201F32DFF773F2E16C0280122E0420E69
:1010B000511CF801A080B18036FE03C0692D70E09C
:1010C00002C06FEF7FEFC5010E949D094C01F32D17
:1010D000F0683F2E820133FC1BC0822D90E0881601
:1010E0009906B0F4B60180E290E00E94B3092A9418
:1010F000F4CFF50137FC859137FE81915F01B60190
:1011000090E00E94B30921102A9421E0821A9108EC
:101110008114910471F7E8C0843611F0893641F5E5
:10112000F80137FE07C060817181828193810C5F75
:101130001F4F08C060817181072E000C880B990B2E
:101140000E5F1F4FF32DFF763F2E97FF09C090953E
:101150008095709561957F4F8F4F9F4FF0683F2E20
:101160002AE030E0A3010E94EF09882E861845C0CE
:10117000853731F4232D2F7EB22E2AE030E025C0B2
:10118000932D997FB92E8F36C1F018F4883579F0F8
:10119000B5C0803719F0883721F0B0C0E92FE06181
:1011A000BE2EB4FE0DC0FB2DF460BF2E09C034FE70
:1011B0000AC0292F2660B22E06C028E030E005C004
:1011C00020E130E002C020E132E0F801B7FE07C0C4
:1011D00060817181828193810C5F1F4F06C06081A5
:1011E000718180E090E00E5F1F4FA3010E94EF0924
:1011F000882E8618FB2DFF773F2E36FE0DC0232D3F
:101200002E7FA22E891458F434FE0BC032FC09C084
:10121000832D8E7EA82E05C0B82CA32C03C0B82C1D
:1012200001C0B92CA4FE0FC0FE01E80DF11D8081A4
:10123000803321F49A2D997EA92E09C0A2FE06C002
:10124000B394B39404C08A2D867809F0B394A3FCB8
:1012500011C0A0FE06C0B21488F4280C922C9B1872
:101260000EC0B21460F4B60180E290E00E94B309AF
:10127000B394F7CFB21418F42B1802C0982C212C79
:10128000A4FE10C0B60180E390E00E94B309A2FE64
:1012900017C0A1FC03C088E790E002C088E590E099
:1012A000B6010CC08A2D867859F0A1FE02C08BE2EF
:1012B00001C080E2A7FC8DE2B60190E00E94B30974
:1012C000891438F4B60180E390E00E94B3099A943F
:1012D000F7CF8A94F301E80DF11D8081B60190E00B
:1012E0000E94B3098110F5CF222009F442CEB60145
:1012F00080E290E00E94B3092A94F6CFF60186813D
:10130000978102C08FEF9FEF2B960FB6F894DEBF48
:101310000FBECDBFDF91CF911F910F91FF90EF9046
:10132000DF90CF90BF90AF909F908F907F906F9005
:101330005F904F903F902F900895FC010590615071
:1013400070400110D8F7809590958E0F9F1F0895DB
:10135000FC016150704001900110D8F78095909584
:101360008E0F9F1F08950F931F93CF93DF93FB0161
:10137000238121FD03C08FEF9FEF2CC022FF16C0F9
:1013800046815781248135814217530744F4A08157
:10139000B1819D012F5F3F4F318320838C93268144
:1013A00037812F5F3F4F3783268314C08B01EC01B9
:1013B000FB010084F185E02D1995892BE1F6D80118
:1013C00016968D919C911797019617969C938E93E4
:1013D0001697CE01DF91CF911F910F910895FA01D9
:1013E000AA27283051F1203181F1E8946F936E7F64
:1013F0006E5F7F4F8F4F9F4FAF4FB1E03ED0B4E055
:101400003CD0670F781F891F9A1FA11D680F791F95
:101410008A1F911DA11D6A0F711D811D911DA11DA6
:1014200020D009F468943F912AE0269F11243019B6
:10143000305D3193DEF6CF010895462F4770405D51
:101440004193B3E00FD0C9F7F6CF462F4F70405D00
:101450004A3318F0495D31FD4052419302D0A9F75B
:10146000EACFB4E0A6959795879577956795BA9555
:10147000C9F700976105710508959B01AC010A2E1B
:1014800006945795479537952795BA95C9F7620FF2
:0E149000731F841F951FA01D0895F894FFCFB1
:10149E00018C41544D6567612032353630205541FF
:1014AE005254302073617973204869200A002564F4
:0C14BE000A00652D59616E747261000017
:00000001FF
