:100000000C9436020C9457020C9457020C9457022D
:100010000C9457020C9457020C9457020C945702FC
:100020000C9457020C9457020C9457020C945702EC
:100030000C9457020C9457020C9457020C945702DC
:100040000C9457020C9457020C9457020C945702CC
:100050000C9457020C9457020C9457020C945702BC
:100060000C9457020C9457020C9457020C945702AC
:100070000C9457020C9457020C9457020C9457029C
:100080000C9457020C9457020C9457020C9457028C
:100090000C9457020C9457020C9457020C9457027C
:1000A0000C9457020C9457020C9457020C9457026C
:1000B0000C9457020C9457020C9457020C9457025C
:1000C0000C9457020C9457020C9457020C9457024C
:1000D0000C9457020C9457020C9457020C9457023C
:1000E0000C945702FFFFFFFFFF00FFFFFFFFFFFF22
:1000F00000FFFFFFFFFFFF00FFFFFFFFFFFF00FF0D
:10010000FFFFFFFFFF00FFFFFFFFFFFF00FFFFFFFD
:10011000FFFFFF00FFFFFFFFFFFF00FFFFFFFFFFED
:10012000FF00FFFFFFFFFFFF00FFFFFFFFFFFF00DC
:10013000FFFFFFFFFFFF00FFFFFFFFFFFF00FFFFCD
:10014000FFFFFFFF00FFFFFFFFFFFF00FFFFFFFFBD
:10015000FFFF00FFFFFFFFFFFF00FFFFFFFFFFFFAD
:1001600000FFFFFFFFFFFF00FFFFFFFFFFFF00FF9C
:10017000FFFFFFFFFF00FFFFFFFFFFFF00FFFFFF8D
:10018000FFFFFF00FFFFFFFFFFFF00FFFFFFFFFF7D
:10019000FF00FFFFFFFFFFFF00FFFFFFFFFFFF006C
:1001A000FFFFFFFFFFFF00FFFFFFFFFFFF00FFFF5D
:1001B000FFFFFFFF00FFFFFFFFFFFF00FFFFFFFF4D
:1001C000FFFF00FF0000000000FFFF00004F0000E5
:1001D00000FF000700070000FF147F147F1400FFDA
:1001E000242A7F2A1200FF231308646200FF364985
:1001F00055222000FF000503000000FF001C2241E3
:100200000000FF0041221C0000FF14083E081400FB
:10021000FF08083E080800FF503000000000FF08FB
:100220000808080800FF006060000000FF201008B8
:10023000040200FF3E5149453E00FF40427F4040DE
:1002400000FF426151494600FF2141454B3100FF0B
:100250001814127F1000FF274545453900FF3C4A1E
:1002600049493000FF017109050300FF364949493A
:100270003600FF064949291E00FF003636000000FF
:10028000FF005636000000FF081422410000FF1452
:100290001414141400FF004122140800FF0201513D
:1002A000090600FF3E415D551E00FF7E1111117EC3
:1002B00000FF7F4949493600FF3E4141412200FF8E
:1002C0007F4141221C00FF7F4949494100FF7F09CE
:1002D00009090100FF3E4149497A00FF7F080808EB
:1002E0007F00FF00417F410000FF2040413F0100AF
:1002F000FF7F0814224100FF7F4040404000FF7F05
:10030000020C027F00FF7F0408107F00FF3E414186
:10031000413E00FF7F0909090600FF3E4151215E71
:1003200000FF7F0919294600FF264949493200FF8D
:1003300001017F010100FF3F4040403F00FF1F20BF
:1003400040201F00FF3F4038403F00FF6314081467
:100350006300FF070870080700FF6151494543002B
:10036000FF007F41410000FF020408102000FF0051
:1003700041417F0000FF040201020400FF404040B1
:10038000404000FF000003050000FF205454547853
:1003900000FF7F4444443800FF384444444400FF95
:1003A000384444447F00FF385454541800FF040478
:1003B0007E050500FF085454543C00FF7F080404E8
:1003C0007800FF00447D4000FFFF2040443D00FFD7
:1003D000FF7F10284400FFFF417F4000FFFFFF7CAC
:1003E000047C047800FF7C0804047800FF3844444F
:1003F000443800FF7C1414140800FF081414147C03
:1004000000FF7C08040400FFFF485454542400FFFC
:1004100004043F444400FF3C4040207C00FF1C207B
:1004200040201C00FF3C4030403C00FF4428102886
:100430004400FF0C5050503C00FF4464544C4400B6
:10044000FF083641410000FF000077000000FF0078
:100450004141360800FF08082A1C0800FF081C2A32
:10046000080800FFFFFFFFFFFF00FF0011241FBE71
:10047000CFEFD1E2DEBFCDBF00E00CBF12E0A0E0C5
:10048000B2E0ECE4F7E000E00BBF02C007900D9291
:10049000AE30B107D9F722E0AEE0B2E001C01D9264
:1004A000A231B207E1F70E949D030C94A4030C94BF
:1004B0000000EBE0F1E080818160808380818D7FAE
:1004C00080830895EBE0F1E0808182608083808109
:1004D0008E7F80830895809104018F77809304013B
:1004E0005D985E9A5F9800C05F9A00C0809103019A
:1004F00087FDF8CF809104018068809304010895FE
:10050000CF93C82F0E946B02C09305015D985E983F
:100510005F9A00C05F98CF910895CF93C82F0E9433
:100520006B02C09305015D9A5E985F9A00C05F9868
:10053000CF910895CF93C82F811103C00E94590213
:1005400002C00E946202C0930E0280E480931002F7
:1005500080910F020E94800280911002CF910C9432
:1005600080021F93CF93DF93823008F56830F8F450
:100570004034E8F4C42FD62F182F811103C00E94F5
:10058000590202C00E94620210930E026D2F686B26
:1005900060930F028C2F8064809310020E9480026F
:1005A00080910F02DF91CF911F910C948002DF9117
:1005B000CF911F910895EEE0F2E02081DC012C93B1
:1005C0008181DB018C938281FA01808308958230DE
:1005D00010F40C949A020895883030F48854809373
:1005E0000F0280E00C949A0208951F93CF93DF933B
:1005F0001091110210921102C0E08C2F0E94EC02A7
:10060000D0E080E00E948D02DF5FD03831F0D0343E
:10061000C1F781E00E949A02F4CFCF5FC83069F73A
:100620001093110288EB80930F0280E0DF91CF914D
:100630001F910C949A028FEF8AB9809304018093E2
:100640000A010E9459028FE30E9480020E94620206
:100650008FE30E94800283EC99E00197F1F700C0DC
:1006600000000E94590280EC0E9480020E946202F7
:1006700080EC0E9480020C94F50280910F028F5F43
:10068000803C08F088EB80930F0280E00C949A0283
:100690008FEF809311020895109211020895CF9365
:1006A000DF93C82F80910E02813021F480911002D7
:1006B0008C3748F4CA3039F087E0C89FE001112434
:1006C000CC51DF4F18C00E943D03CA30C9F0F4CFAF
:1006D00080911002803819F481E00E949A02FE0194
:1006E000849121968F3F61F00E948D0280911002CB
:1006F0008F5F8093100280910E028111F0CFE8CFBE
:10070000DF91CF910895CF93DF93EC0189918823F6
:1007100019F00E944F03FACFDF91CF91089500970F
:1007200059F02FE33DE043E0215030404040E1F7F5
:1007300000C000000197F3CF08950E941B0380E0E2
:0C07400092E00E948303FFCFF894FFCFEB
:0E074C004353363834202D2032303230000036
:00000001FF
